{
  "_format": "hh-sol-artifact-1",
  "contractName": "RockScissorsPaper",
  "sourceName": "contracts/RockScissorsPaper.sol",
  "abi": [
    {
      "inputs": [],
      "stateMutability": "payable",
      "type": "constructor"
    },
    {
      "anonymous": false,
      "inputs": [
        {
          "indexed": false,
          "internalType": "address",
          "name": "player",
          "type": "address"
        },
        {
          "indexed": false,
          "internalType": "bool",
          "name": "result",
          "type": "bool"
        }
      ],
      "name": "GamePlayed",
      "type": "event"
    },
    {
      "inputs": [
        {
          "internalType": "uint8",
          "name": "_option",
          "type": "uint8"
        }
      ],
      "name": "playWithSC",
      "outputs": [
        {
          "internalType": "bool",
          "name": "",
          "type": "bool"
        }
      ],
      "stateMutability": "payable",
      "type": "function"
    },
    {
      "stateMutability": "payable",
      "type": "receive"
    }
  ],
  "bytecode": "0x6080604052610635806100136000396000f3fe6080604052600436106100225760003560e01c8063b46b58721461002e57610029565b3661002957005b600080fd5b610048600480360381019061004391906102b6565b61005e565b60405161005591906102fe565b60405180910390f35b600060028260ff1611156100a7576040517f08c379a000000000000000000000000000000000000000000000000000000000815260040161009e9061039c565b60405180910390fd5b655af3107a40003410156100f0576040517f08c379a00000000000000000000000000000000000000000000000000000000081526004016100e79061042e565b60405180910390fd5b476002346100fe9190610487565b111561013f576040517f08c379a000000000000000000000000000000000000000000000000000000000815260040161013690610515565b60405180910390fd5b600060034261014e9190610564565b905060008360ff161480156101635750600181145b8061017d575060018360ff1614801561017c5750600281145b5b80610197575060028360ff161480156101965750600081145b5b15610233573373ffffffffffffffffffffffffffffffffffffffff166108fc6002346101c39190610487565b9081150290604051600060405180830381858888f193505050501580156101ee573d6000803e3d6000fd5b507f053a1c9b07ced45d8c1466e4f12f5b0d2f80ed2396c0461a570f4537b33f9e453360016040516102219291906105d6565b60405180910390a16001915050610273565b7f053a1c9b07ced45d8c1466e4f12f5b0d2f80ed2396c0461a570f4537b33f9e453360006040516102659291906105d6565b60405180910390a160009150505b919050565b600080fd5b600060ff82169050919050565b6102938161027d565b811461029e57600080fd5b50565b6000813590506102b08161028a565b92915050565b6000602082840312156102cc576102cb610278565b5b60006102da848285016102a1565b91505092915050565b60008115159050919050565b6102f8816102e3565b82525050565b600060208201905061031360008301846102ef565b92915050565b600082825260208201905092915050565b7f596f752063616e2063686f6f7365206f6e6c7920302028526f636b292c20312060008201527f2853636973736f7273292c203220285061706572290000000000000000000000602082015250565b6000610386603583610319565b91506103918261032a565b604082019050919050565b600060208201905081810360008301526103b581610379565b9050919050565b7f47616d653a2057726f6e672062696420616d6f756e742e204d696e696d616c3a60008201527f20302e3030303120424e42202831303020303030206777656929000000000000602082015250565b6000610418603a83610319565b9150610423826103bc565b604082019050919050565b600060208201905081810360008301526104478161040b565b9050919050565b6000819050919050565b7f4e487b7100000000000000000000000000000000000000000000000000000000600052601160045260246000fd5b60006104928261044e565b915061049d8361044e565b92508282026104ab8161044e565b915082820484148315176104c2576104c1610458565b5b5092915050565b7f536d6172742d636f6e74726163742072756e206f7574206f662066756e647300600082015250565b60006104ff601f83610319565b915061050a826104c9565b602082019050919050565b6000602082019050818103600083015261052e816104f2565b9050919050565b7f4e487b7100000000000000000000000000000000000000000000000000000000600052601260045260246000fd5b600061056f8261044e565b915061057a8361044e565b92508261058a57610589610535565b5b828206905092915050565b600073ffffffffffffffffffffffffffffffffffffffff82169050919050565b60006105c082610595565b9050919050565b6105d0816105b5565b82525050565b60006040820190506105eb60008301856105c7565b6105f860208301846102ef565b939250505056fea2646970667358221220f8903ba1e9e7913b1a1da019d460b7b5671606e3b2e12410426e492b10cb8b9364736f6c63430008120033",
  "linkReferences": {},
  "deployedLinkReferences": {}
}